{"abi":[{"type":"constructor","inputs":[{"name":"_tokenAddress","type":"address","internalType":"address"}],"stateMutability":"nonpayable"},{"type":"receive","stateMutability":"payable"},{"type":"function","name":"owner","inputs":[],"outputs":[{"name":"","type":"address","internalType":"address"}],"stateMutability":"view"},{"type":"function","name":"paymentToken","inputs":[],"outputs":[{"name":"","type":"address","internalType":"contract IERC20"}],"stateMutability":"view"},{"type":"function","name":"processPayment","inputs":[{"name":"amount","type":"uint256","internalType":"uint256"},{"name":"recipient","type":"address","internalType":"address"}],"outputs":[],"stateMutability":"nonpayable"},{"type":"function","name":"redeemPoints","inputs":[{"name":"points","type":"uint256","internalType":"uint256"}],"outputs":[],"stateMutability":"nonpayable"},{"type":"function","name":"renounceOwnership","inputs":[],"outputs":[],"stateMutability":"nonpayable"},{"type":"function","name":"rewardConfig","inputs":[],"outputs":[{"name":"isActive","type":"bool","internalType":"bool"},{"name":"cashbackRate","type":"uint256","internalType":"uint256"},{"name":"pointsRate","type":"uint256","internalType":"uint256"},{"name":"minPurchase","type":"uint256","internalType":"uint256"}],"stateMutability":"view"},{"type":"function","name":"setRewardConfig","inputs":[{"name":"isActive","type":"bool","internalType":"bool"},{"name":"cashbackRate","type":"uint256","internalType":"uint256"},{"name":"pointsRate","type":"uint256","internalType":"uint256"},{"name":"minPurchase","type":"uint256","internalType":"uint256"}],"outputs":[],"stateMutability":"nonpayable"},{"type":"function","name":"transferOwnership","inputs":[{"name":"newOwner","type":"address","internalType":"address"}],"outputs":[],"stateMutability":"nonpayable"},{"type":"function","name":"userPoints","inputs":[{"name":"","type":"address","internalType":"address"}],"outputs":[{"name":"","type":"uint256","internalType":"uint256"}],"stateMutability":"view"},{"type":"function","name":"withdrawFunds","inputs":[{"name":"amount","type":"uint256","internalType":"uint256"}],"outputs":[],"stateMutability":"nonpayable"},{"type":"event","name":"CashbackEarned","inputs":[{"name":"user","type":"address","indexed":true,"internalType":"address"},{"name":"token","type":"address","indexed":true,"internalType":"address"},{"name":"amount","type":"uint256","indexed":false,"internalType":"uint256"},{"name":"pointsEarned","type":"uint256","indexed":false,"internalType":"uint256"}],"anonymous":false},{"type":"event","name":"OwnershipTransferred","inputs":[{"name":"previousOwner","type":"address","indexed":true,"internalType":"address"},{"name":"newOwner","type":"address","indexed":true,"internalType":"address"}],"anonymous":false},{"type":"event","name":"PointsRedeemed","inputs":[{"name":"user","type":"address","indexed":true,"internalType":"address"},{"name":"points","type":"uint256","indexed":false,"internalType":"uint256"},{"name":"token","type":"address","indexed":false,"internalType":"address"},{"name":"amount","type":"uint256","indexed":false,"internalType":"uint256"}],"anonymous":false},{"type":"event","name":"RewardConfigUpdated","inputs":[{"name":"user","type":"address","indexed":true,"internalType":"address"},{"name":"isActive","type":"bool","indexed":false,"internalType":"bool"},{"name":"cashbackRate","type":"uint256","indexed":false,"internalType":"uint256"},{"name":"pointsRate","type":"uint256","indexed":false,"internalType":"uint256"},{"name":"minPurchase","type":"uint256","indexed":false,"internalType":"uint256"}],"anonymous":false},{"type":"error","name":"OwnableInvalidOwner","inputs":[{"name":"owner","type":"address","internalType":"address"}]},{"type":"error","name":"OwnableUnauthorizedAccount","inputs":[{"name":"account","type":"address","internalType":"address"}]},{"type":"error","name":"ReentrancyGuardReentrantCall","inputs":[]}],"bytecode":{"object":"0x608060405234801561000f575f5ffd5b50604051611dc0380380611dc0833981810160405281019061003191906102fb565b335f73ffffffffffffffffffffffffffffffffffffffff168173ffffffffffffffffffffffffffffffffffffffff16036100a2575f6040517f1e4fbdf70000000000000000000000000000000000000000000000000000000081526004016100999190610335565b60405180910390fd5b6100b1816101dc60201b60201c565b50600180819055505f73ffffffffffffffffffffffffffffffffffffffff168173ffffffffffffffffffffffffffffffffffffffff1603610127576040517f08c379a000000000000000000000000000000000000000000000000000000000815260040161011e906103a8565b60405180910390fd5b8060025f6101000a81548173ffffffffffffffffffffffffffffffffffffffff021916908373ffffffffffffffffffffffffffffffffffffffff16021790555060405180608001604052806001151581526020016101f4815260200160648152602001678ac7230489e8000081525060035f820151815f015f6101000a81548160ff021916908315150217905550602082015181600101556040820151816002015560608201518160030155905050506103c6565b5f5f5f9054906101000a900473ffffffffffffffffffffffffffffffffffffffff169050815f5f6101000a81548173ffffffffffffffffffffffffffffffffffffffff021916908373ffffffffffffffffffffffffffffffffffffffff1602179055508173ffffffffffffffffffffffffffffffffffffffff168173ffffffffffffffffffffffffffffffffffffffff167f8be0079c531659141344cd1fd0a4f28419497f9722a3daafe3b4186f6b6457e060405160405180910390a35050565b5f5ffd5b5f73ffffffffffffffffffffffffffffffffffffffff82169050919050565b5f6102ca826102a1565b9050919050565b6102da816102c0565b81146102e4575f5ffd5b50565b5f815190506102f5816102d1565b92915050565b5f602082840312156103105761030f61029d565b5b5f61031d848285016102e7565b91505092915050565b61032f816102c0565b82525050565b5f6020820190506103485f830184610326565b92915050565b5f82825260208201905092915050565b7f496e76616c696420746f6b656e206164647265737300000000000000000000005f82015250565b5f61039260158361034e565b915061039d8261035e565b602082019050919050565b5f6020820190508181035f8301526103bf81610386565b9050919050565b6119ed806103d35f395ff3fe608060405260043610610094575f3560e01c8063715018a611610058578063715018a61461016e5780638da5cb5b14610184578063e92e92e7146101ae578063f2fde38b146101d6578063f50ddbc7146101fe5761009b565b8063155dd5ee1461009f5780633013ce29146100c757806343c597dc146100f15780634e94c28514610119578063674b4a6e146101465761009b565b3661009b57005b5f5ffd5b3480156100aa575f5ffd5b506100c560048036038101906100c09190610fdf565b61023a565b005b3480156100d2575f5ffd5b506100db61040c565b6040516100e89190611084565b60405180910390f35b3480156100fc575f5ffd5b50610117600480360381019061011291906110d8565b610431565b005b348015610124575f5ffd5b5061012d61083f565b60405161013d949392919061113f565b60405180910390f35b348015610151575f5ffd5b5061016c600480360381019061016791906111ac565b610868565b005b348015610179575f5ffd5b506101826109b4565b005b34801561018f575f5ffd5b506101986109c7565b6040516101a5919061121f565b60405180910390f35b3480156101b9575f5ffd5b506101d460048036038101906101cf9190610fdf565b6109ee565b005b3480156101e1575f5ffd5b506101fc60048036038101906101f79190611238565b610d71565b005b348015610209575f5ffd5b50610224600480360381019061021f9190611238565b610df5565b6040516102319190611263565b60405180910390f35b610242610e0a565b5f60025f9054906101000a900473ffffffffffffffffffffffffffffffffffffffff1673ffffffffffffffffffffffffffffffffffffffff166370a08231306040518263ffffffff1660e01b815260040161029d919061121f565b602060405180830381865afa1580156102b8573d5f5f3e3d5ffd5b505050506040513d601f19601f820116820180604052508101906102dc9190611290565b905080821115610321576040517f08c379a000000000000000000000000000000000000000000000000000000000815260040161031890611315565b60405180910390fd5b5f60025f9054906101000a900473ffffffffffffffffffffffffffffffffffffffff1673ffffffffffffffffffffffffffffffffffffffff1663a9059cbb6103676109c7565b856040518363ffffffff1660e01b8152600401610385929190611333565b6020604051808303815f875af11580156103a1573d5f5f3e3d5ffd5b505050506040513d601f19601f820116820180604052508101906103c5919061136e565b905080610407576040517f08c379a00000000000000000000000000000000000000000000000000000000081526004016103fe906113e3565b60405180910390fd5b505050565b60025f9054906101000a900473ffffffffffffffffffffffffffffffffffffffff1681565b610439610e91565b60035f015f9054906101000a900460ff16610489576040517f08c379a00000000000000000000000000000000000000000000000000000000081526004016104809061144b565b60405180910390fd5b60038001548210156104d0576040517f08c379a00000000000000000000000000000000000000000000000000000000081526004016104c7906114b3565b60405180910390fd5b5f73ffffffffffffffffffffffffffffffffffffffff168173ffffffffffffffffffffffffffffffffffffffff160361053e576040517f08c379a00000000000000000000000000000000000000000000000000000000081526004016105359061151b565b60405180910390fd5b5f60025f9054906101000a900473ffffffffffffffffffffffffffffffffffffffff1673ffffffffffffffffffffffffffffffffffffffff166323b872dd3330866040518463ffffffff1660e01b815260040161059d93929190611539565b6020604051808303815f875af11580156105b9573d5f5f3e3d5ffd5b505050506040513d601f19601f820116820180604052508101906105dd919061136e565b90508061061f576040517f08c379a0000000000000000000000000000000000000000000000000000000008152600401610616906113e3565b60405180910390fd5b5f61271060036001015485610634919061159b565b61063e9190611609565b90505f818561064d9190611639565b905060025f9054906101000a900473ffffffffffffffffffffffffffffffffffffffff1673ffffffffffffffffffffffffffffffffffffffff1663a9059cbb85836040518363ffffffff1660e01b81526004016106ab929190611333565b6020604051808303815f875af11580156106c7573d5f5f3e3d5ffd5b505050506040513d601f19601f820116820180604052508101906106eb919061136e565b92508261072d576040517f08c379a0000000000000000000000000000000000000000000000000000000008152600401610724906116dc565b60405180910390fd5b5f670de0b6b3a764000060036002015487610748919061159b565b6107529190611609565b90508060075f3373ffffffffffffffffffffffffffffffffffffffff1673ffffffffffffffffffffffffffffffffffffffff1681526020019081526020015f205f8282546107a091906116fa565b9250508190555060025f9054906101000a900473ffffffffffffffffffffffffffffffffffffffff1673ffffffffffffffffffffffffffffffffffffffff163373ffffffffffffffffffffffffffffffffffffffff167f7ba42890801d545739cbccd44e17315da435f9c701ce172fd17a69845906b827858460405161082792919061172d565b60405180910390a35050505061083b610ed7565b5050565b6003805f015f9054906101000a900460ff16908060010154908060020154908060030154905084565b610870610e0a565b6103e88311156108b5576040517f08c379a00000000000000000000000000000000000000000000000000000000081526004016108ac9061179e565b60405180910390fd5b5f82116108f7576040517f08c379a00000000000000000000000000000000000000000000000000000000081526004016108ee9061182c565b60405180910390fd5b604051806080016040528085151581526020018481526020018381526020018281525060035f820151815f015f6101000a81548160ff0219169083151502179055506020820151816001015560408201518160020155606082015181600301559050503373ffffffffffffffffffffffffffffffffffffffff167f19dfaa6bfc45c23704d4c910b69294b41539eec1601dda747eb98045579e2455858585856040516109a6949392919061113f565b60405180910390a250505050565b6109bc610e0a565b6109c55f610ee0565b565b5f5f5f9054906101000a900473ffffffffffffffffffffffffffffffffffffffff16905090565b6109f6610e91565b5f8111610a38576040517f08c379a0000000000000000000000000000000000000000000000000000000008152600401610a2f90611894565b60405180910390fd5b8060075f3373ffffffffffffffffffffffffffffffffffffffff1673ffffffffffffffffffffffffffffffffffffffff1681526020019081526020015f20541015610ab8576040517f08c379a0000000000000000000000000000000000000000000000000000000008152600401610aaf906118fc565b60405180910390fd5b5f600360020154670de0b6b3a764000083610ad3919061159b565b610add9190611609565b90505f60025f9054906101000a900473ffffffffffffffffffffffffffffffffffffffff1673ffffffffffffffffffffffffffffffffffffffff166370a08231306040518263ffffffff1660e01b8152600401610b3a919061121f565b602060405180830381865afa158015610b55573d5f5f3e3d5ffd5b505050506040513d601f19601f82011682018060405250810190610b799190611290565b905081811015610bbe576040517f08c379a0000000000000000000000000000000000000000000000000000000008152600401610bb590611964565b60405180910390fd5b8260075f3373ffffffffffffffffffffffffffffffffffffffff1673ffffffffffffffffffffffffffffffffffffffff1681526020019081526020015f205f828254610c0a9190611639565b925050819055505f60025f9054906101000a900473ffffffffffffffffffffffffffffffffffffffff1673ffffffffffffffffffffffffffffffffffffffff1663a9059cbb33856040518363ffffffff1660e01b8152600401610c6e929190611333565b6020604051808303815f875af1158015610c8a573d5f5f3e3d5ffd5b505050506040513d601f19601f82011682018060405250810190610cae919061136e565b905080610cf0576040517f08c379a0000000000000000000000000000000000000000000000000000000008152600401610ce7906113e3565b60405180910390fd5b3373ffffffffffffffffffffffffffffffffffffffff167f30980db6e5f3308ffe727b40ec493243626a578396f1c1751b148f7e1ff60b5d8560025f9054906101000a900473ffffffffffffffffffffffffffffffffffffffff1686604051610d5b93929190611982565b60405180910390a2505050610d6e610ed7565b50565b610d79610e0a565b5f73ffffffffffffffffffffffffffffffffffffffff168173ffffffffffffffffffffffffffffffffffffffff1603610de9575f6040517f1e4fbdf7000000000000000000000000000000000000000000000000000000008152600401610de0919061121f565b60405180910390fd5b610df281610ee0565b50565b6007602052805f5260405f205f915090505481565b610e12610fa1565b73ffffffffffffffffffffffffffffffffffffffff16610e306109c7565b73ffffffffffffffffffffffffffffffffffffffff1614610e8f57610e53610fa1565b6040517f118cdaa7000000000000000000000000000000000000000000000000000000008152600401610e86919061121f565b60405180910390fd5b565b600260015403610ecd576040517f3ee5aeb500000000000000000000000000000000000000000000000000000000815260040160405180910390fd5b6002600181905550565b60018081905550565b5f5f5f9054906101000a900473ffffffffffffffffffffffffffffffffffffffff169050815f5f6101000a81548173ffffffffffffffffffffffffffffffffffffffff021916908373ffffffffffffffffffffffffffffffffffffffff1602179055508173ffffffffffffffffffffffffffffffffffffffff168173ffffffffffffffffffffffffffffffffffffffff167f8be0079c531659141344cd1fd0a4f28419497f9722a3daafe3b4186f6b6457e060405160405180910390a35050565b5f33905090565b5f5ffd5b5f819050919050565b610fbe81610fac565b8114610fc8575f5ffd5b50565b5f81359050610fd981610fb5565b92915050565b5f60208284031215610ff457610ff3610fa8565b5b5f61100184828501610fcb565b91505092915050565b5f73ffffffffffffffffffffffffffffffffffffffff82169050919050565b5f819050919050565b5f61104c6110476110428461100a565b611029565b61100a565b9050919050565b5f61105d82611032565b9050919050565b5f61106e82611053565b9050919050565b61107e81611064565b82525050565b5f6020820190506110975f830184611075565b92915050565b5f6110a78261100a565b9050919050565b6110b78161109d565b81146110c1575f5ffd5b50565b5f813590506110d2816110ae565b92915050565b5f5f604083850312156110ee576110ed610fa8565b5b5f6110fb85828601610fcb565b925050602061110c858286016110c4565b9150509250929050565b5f8115159050919050565b61112a81611116565b82525050565b61113981610fac565b82525050565b5f6080820190506111525f830187611121565b61115f6020830186611130565b61116c6040830185611130565b6111796060830184611130565b95945050505050565b61118b81611116565b8114611195575f5ffd5b50565b5f813590506111a681611182565b92915050565b5f5f5f5f608085870312156111c4576111c3610fa8565b5b5f6111d187828801611198565b94505060206111e287828801610fcb565b93505060406111f387828801610fcb565b925050606061120487828801610fcb565b91505092959194509250565b6112198161109d565b82525050565b5f6020820190506112325f830184611210565b92915050565b5f6020828403121561124d5761124c610fa8565b5b5f61125a848285016110c4565b91505092915050565b5f6020820190506112765f830184611130565b92915050565b5f8151905061128a81610fb5565b92915050565b5f602082840312156112a5576112a4610fa8565b5b5f6112b28482850161127c565b91505092915050565b5f82825260208201905092915050565b7f496e73756666696369656e742062616c616e63650000000000000000000000005f82015250565b5f6112ff6014836112bb565b915061130a826112cb565b602082019050919050565b5f6020820190508181035f83015261132c816112f3565b9050919050565b5f6040820190506113465f830185611210565b6113536020830184611130565b9392505050565b5f8151905061136881611182565b92915050565b5f6020828403121561138357611382610fa8565b5b5f6113908482850161135a565b91505092915050565b7f546f6b656e207472616e73666572206661696c656400000000000000000000005f82015250565b5f6113cd6015836112bb565b91506113d882611399565b602082019050919050565b5f6020820190508181035f8301526113fa816113c1565b9050919050565b7f526577617264732070726f6772616d206973206e6f74206163746976650000005f82015250565b5f611435601d836112bb565b915061144082611401565b602082019050919050565b5f6020820190508181035f83015261146281611429565b9050919050565b7f507572636861736520616d6f756e742062656c6f77206d696e696d756d0000005f82015250565b5f61149d601d836112bb565b91506114a882611469565b602082019050919050565b5f6020820190508181035f8301526114ca81611491565b9050919050565b7f496e76616c696420726563697069656e742061646472657373000000000000005f82015250565b5f6115056019836112bb565b9150611510826114d1565b602082019050919050565b5f6020820190508181035f830152611532816114f9565b9050919050565b5f60608201905061154c5f830186611210565b6115596020830185611210565b6115666040830184611130565b949350505050565b7f4e487b71000000000000000000000000000000000000000000000000000000005f52601160045260245ffd5b5f6115a582610fac565b91506115b083610fac565b92508282026115be81610fac565b915082820484148315176115d5576115d461156e565b5b5092915050565b7f4e487b71000000000000000000000000000000000000000000000000000000005f52601260045260245ffd5b5f61161382610fac565b915061161e83610fac565b92508261162e5761162d6115dc565b5b828204905092915050565b5f61164382610fac565b915061164e83610fac565b92508282039050818111156116665761166561156e565b5b92915050565b7f4661696c656420746f207472616e7366657220746f6b656e7320746f207265635f8201527f697069656e740000000000000000000000000000000000000000000000000000602082015250565b5f6116c66026836112bb565b91506116d18261166c565b604082019050919050565b5f6020820190508181035f8301526116f3816116ba565b9050919050565b5f61170482610fac565b915061170f83610fac565b92508282019050808211156117275761172661156e565b5b92915050565b5f6040820190506117405f830185611130565b61174d6020830184611130565b9392505050565b7f436173686261636b20726174652063616e6e6f742065786365656420313025005f82015250565b5f611788601f836112bb565b915061179382611754565b602082019050919050565b5f6020820190508181035f8301526117b58161177c565b9050919050565b7f506f696e74732072617465206d7573742062652067726561746572207468616e5f8201527f2030000000000000000000000000000000000000000000000000000000000000602082015250565b5f6118166022836112bb565b9150611821826117bc565b604082019050919050565b5f6020820190508181035f8301526118438161180a565b9050919050565b7f43616e6e6f742072656465656d203020706f696e7473000000000000000000005f82015250565b5f61187e6016836112bb565b91506118898261184a565b602082019050919050565b5f6020820190508181035f8301526118ab81611872565b9050919050565b7f496e73756666696369656e7420706f696e7473000000000000000000000000005f82015250565b5f6118e66013836112bb565b91506118f1826118b2565b602082019050919050565b5f6020820190508181035f830152611913816118da565b9050919050565b7f496e73756666696369656e7420636f6e74726163742062616c616e63650000005f82015250565b5f61194e601d836112bb565b91506119598261191a565b602082019050919050565b5f6020820190508181035f83015261197b81611942565b9050919050565b5f6060820190506119955f830186611130565b6119a26020830185611210565b6119af6040830184611130565b94935050505056fea2646970667358221220682271f2957a30e44bb9384191f461ef2a022cf1610e1cc268357312468fc25a64736f6c634300081e0033","linkReferences":{}},"methodIdentifiers":{"owner()":"8da5cb5b","paymentToken()":"3013ce29","processPayment(uint256,address)":"43c597dc","redeemPoints(uint256)":"e92e92e7","renounceOwnership()":"715018a6","rewardConfig()":"4e94c285","setRewardConfig(bool,uint256,uint256,uint256)":"674b4a6e","transferOwnership(address)":"f2fde38b","userPoints(address)":"f50ddbc7","withdrawFunds(uint256)":"155dd5ee"},"id":31}