{"abi":[{"type":"constructor","inputs":[],"stateMutability":"nonpayable"},{"type":"receive","stateMutability":"payable"},{"type":"function","name":"beneficiaries","inputs":[{"name":"","type":"string","internalType":"string"},{"name":"","type":"uint256","internalType":"uint256"}],"outputs":[{"name":"wallet","type":"address","internalType":"address payable"},{"name":"percentage","type":"uint256","internalType":"uint256"}],"stateMutability":"view"},{"type":"function","name":"distributeRoyalties","inputs":[{"name":"workId","type":"string","internalType":"string"},{"name":"tokenAddress","type":"address","internalType":"address"},{"name":"amount","type":"uint256","internalType":"uint256"}],"outputs":[],"stateMutability":"payable"},{"type":"function","name":"owner","inputs":[],"outputs":[{"name":"","type":"address","internalType":"address"}],"stateMutability":"view"},{"type":"function","name":"renounceOwnership","inputs":[],"outputs":[],"stateMutability":"nonpayable"},{"type":"function","name":"setBeneficiaries","inputs":[{"name":"workId","type":"string","internalType":"string"},{"name":"_beneficiaries","type":"address[]","internalType":"address[]"},{"name":"_percentages","type":"uint256[]","internalType":"uint256[]"}],"outputs":[],"stateMutability":"nonpayable"},{"type":"function","name":"transferOwnership","inputs":[{"name":"newOwner","type":"address","internalType":"address"}],"outputs":[],"stateMutability":"nonpayable"},{"type":"function","name":"withdrawFunds","inputs":[{"name":"tokenAddress","type":"address","internalType":"address"}],"outputs":[],"stateMutability":"nonpayable"},{"type":"event","name":"BeneficiariesUpdated","inputs":[{"name":"workId","type":"string","indexed":true,"internalType":"string"},{"name":"beneficiaries","type":"address[]","indexed":false,"internalType":"address[]"},{"name":"percentages","type":"uint256[]","indexed":false,"internalType":"uint256[]"}],"anonymous":false},{"type":"event","name":"OwnershipTransferred","inputs":[{"name":"previousOwner","type":"address","indexed":true,"internalType":"address"},{"name":"newOwner","type":"address","indexed":true,"internalType":"address"}],"anonymous":false},{"type":"event","name":"RoyaltiesDistributed","inputs":[{"name":"workId","type":"string","indexed":true,"internalType":"string"},{"name":"token","type":"address","indexed":false,"internalType":"address"},{"name":"totalAmount","type":"uint256","indexed":false,"internalType":"uint256"},{"name":"recipients","type":"address[]","indexed":false,"internalType":"address[]"},{"name":"amounts","type":"uint256[]","indexed":false,"internalType":"uint256[]"}],"anonymous":false},{"type":"error","name":"OwnableInvalidOwner","inputs":[{"name":"owner","type":"address","internalType":"address"}]},{"type":"error","name":"OwnableUnauthorizedAccount","inputs":[{"name":"account","type":"address","internalType":"address"}]},{"type":"error","name":"ReentrancyGuardReentrantCall","inputs":[]}],"bytecode":{"object":"0x608060405234801561000f575f5ffd5b50335f73ffffffffffffffffffffffffffffffffffffffff168173ffffffffffffffffffffffffffffffffffffffff1603610081575f6040517f1e4fbdf7000000000000000000000000000000000000000000000000000000008152600401610078919061019d565b60405180910390fd5b6100908161009d60201b60201c565b50600180819055506101b6565b5f5f5f9054906101000a900473ffffffffffffffffffffffffffffffffffffffff169050815f5f6101000a81548173ffffffffffffffffffffffffffffffffffffffff021916908373ffffffffffffffffffffffffffffffffffffffff1602179055508173ffffffffffffffffffffffffffffffffffffffff168173ffffffffffffffffffffffffffffffffffffffff167f8be0079c531659141344cd1fd0a4f28419497f9722a3daafe3b4186f6b6457e060405160405180910390a35050565b5f73ffffffffffffffffffffffffffffffffffffffff82169050919050565b5f6101878261015e565b9050919050565b6101978161017d565b82525050565b5f6020820190506101b05f83018461018e565b92915050565b61213c806101c35f395ff3fe608060405260043610610073575f3560e01c80638da5cb5b1161004d5780638da5cb5b146100d8578063bf058d9214610102578063d191f5f11461013f578063f2fde38b146101675761007a565b80632687e5aa1461007e57806368742da61461009a578063715018a6146100c25761007a565b3661007a57005b5f5ffd5b610098600480360381019061009391906111e4565b61018f565b005b3480156100a5575f5ffd5b506100c060048036038101906100bb9190611255565b61079d565b005b3480156100cd575f5ffd5b506100d6610a5c565b005b3480156100e3575f5ffd5b506100ec610a6f565b6040516100f9919061128f565b60405180910390f35b34801561010d575f5ffd5b50610128600480360381019061012391906113e0565b610a96565b604051610136929190611469565b60405180910390f35b34801561014a575f5ffd5b506101656004803603810190610160919061153a565b610b07565b005b348015610172575f5ffd5b5061018d60048036038101906101889190611255565b610e5f565b005b610197610ee3565b5f81116101d9576040517f08c379a00000000000000000000000000000000000000000000000000000000081526004016101d090611644565b60405180910390fd5b5f600285856040516101ec929190611690565b908152602001604051809103902090505f818054905011610242576040517f08c379a000000000000000000000000000000000000000000000000000000000815260040161023990611718565b60405180910390fd5b5f5f73ffffffffffffffffffffffffffffffffffffffff168473ffffffffffffffffffffffffffffffffffffffff161461027c578261027e565b345b90505f81116102c2576040517f08c379a00000000000000000000000000000000000000000000000000000000081526004016102b990611780565b60405180910390fd5b5f73ffffffffffffffffffffffffffffffffffffffff168473ffffffffffffffffffffffffffffffffffffffff16146103b7575f8490508073ffffffffffffffffffffffffffffffffffffffff166323b872dd3330876040518463ffffffff1660e01b81526004016103369392919061179e565b6020604051808303815f875af1158015610352573d5f5f3e3d5ffd5b505050506040513d601f19601f820116820180604052508101906103769190611808565b6103b5576040517f08c379a00000000000000000000000000000000000000000000000000000000081526004016103ac9061187d565b60405180910390fd5b505b5f828054905067ffffffffffffffff8111156103d6576103d56112bc565b5b6040519080825280602002602001820160405280156104045781602001602082028036833780820191505090505b5090505f838054905067ffffffffffffffff811115610426576104256112bc565b5b6040519080825280602002602001820160405280156104545781602001602082028036833780820191505090505b5090505f5f90505f5f90505b8580549050811015610734575f8682815481106104805761047f61189b565b5b905f5260205f2090600202016040518060400160405290815f82015f9054906101000a900473ffffffffffffffffffffffffffffffffffffffff1673ffffffffffffffffffffffffffffffffffffffff1673ffffffffffffffffffffffffffffffffffffffff16815260200160018201548152505090505f61271082602001518861050b91906118f5565b6105159190611963565b9050600188805490506105289190611993565b830361054157838761053a9190611993565b9050610550565b808461054d91906119c6565b93505b5f73ffffffffffffffffffffffffffffffffffffffff168a73ffffffffffffffffffffffffffffffffffffffff1603610634575f825f015173ffffffffffffffffffffffffffffffffffffffff16826040516105ab90611a26565b5f6040518083038185875af1925050503d805f81146105e5576040519150601f19603f3d011682016040523d82523d5f602084013e6105ea565b606091505b505090508061062e576040517f08c379a000000000000000000000000000000000000000000000000000000000815260040161062590611a84565b60405180910390fd5b506106b4565b8973ffffffffffffffffffffffffffffffffffffffff1663a9059cbb835f0151836040518363ffffffff1660e01b8152600401610672929190611afd565b6020604051808303815f875af115801561068e573d5f5f3e3d5ffd5b505050506040513d601f19601f820116820180604052508101906106b29190611808565b505b815f01518684815181106106cb576106ca61189b565b5b602002602001019073ffffffffffffffffffffffffffffffffffffffff16908173ffffffffffffffffffffffffffffffffffffffff1681525050808584815181106107195761071861189b565b5b60200260200101818152505050508080600101915050610460565b508888604051610745929190611690565b60405180910390207f9d20533089c8c62fa3ff3e201d35d577117a387a7408df44d3c7bdeeeacfb7bf888686866040516107829493929190611c92565b60405180910390a25050505050610797610f29565b50505050565b6107a5610f32565b5f73ffffffffffffffffffffffffffffffffffffffff168173ffffffffffffffffffffffffffffffffffffffff16036108d4575f4790505f811161081e576040517f08c379a000000000000000000000000000000000000000000000000000000000815260040161081590611d2d565b60405180910390fd5b5f610827610a6f565b73ffffffffffffffffffffffffffffffffffffffff168260405161084a90611a26565b5f6040518083038185875af1925050503d805f8114610884576040519150601f19603f3d011682016040523d82523d5f602084013e610889565b606091505b50509050806108cd576040517f08c379a00000000000000000000000000000000000000000000000000000000081526004016108c490611a84565b60405180910390fd5b5050610a59565b5f8190505f8173ffffffffffffffffffffffffffffffffffffffff166370a08231306040518263ffffffff1660e01b8152600401610912919061128f565b602060405180830381865afa15801561092d573d5f5f3e3d5ffd5b505050506040513d601f19601f820116820180604052508101906109519190611d5f565b90505f8111610995576040517f08c379a000000000000000000000000000000000000000000000000000000000815260040161098c90611dd4565b60405180910390fd5b8173ffffffffffffffffffffffffffffffffffffffff1663a9059cbb6109b9610a6f565b836040518363ffffffff1660e01b81526004016109d7929190611df2565b6020604051808303815f875af11580156109f3573d5f5f3e3d5ffd5b505050506040513d601f19601f82011682018060405250810190610a179190611808565b610a56576040517f08c379a0000000000000000000000000000000000000000000000000000000008152600401610a4d9061187d565b60405180910390fd5b50505b50565b610a64610f32565b610a6d5f610fb9565b565b5f5f5f9054906101000a900473ffffffffffffffffffffffffffffffffffffffff16905090565b6002828051602081018201805184825260208301602085012081835280955050505050508181548110610ac7575f80fd5b905f5260205f2090600202015f9150915050805f015f9054906101000a900473ffffffffffffffffffffffffffffffffffffffff16908060010154905082565b610b0f610f32565b818190508484905014610b57576040517f08c379a0000000000000000000000000000000000000000000000000000000008152600401610b4e90611e63565b60405180910390fd5b60028686604051610b69929190611690565b90815260200160405180910390205f610b829190611081565b5f5f90505f5f90505b85859050811015610dbb575f73ffffffffffffffffffffffffffffffffffffffff16868683818110610bc057610bbf61189b565b5b9050602002016020810190610bd59190611255565b73ffffffffffffffffffffffffffffffffffffffff1603610c2b576040517f08c379a0000000000000000000000000000000000000000000000000000000008152600401610c2290611ecb565b60405180910390fd5b5f848483818110610c3f57610c3e61189b565b5b9050602002013511610c86576040517f08c379a0000000000000000000000000000000000000000000000000000000008152600401610c7d90611f59565b60405180910390fd5b60028888604051610c98929190611690565b90815260200160405180910390206040518060400160405280888885818110610cc457610cc361189b565b5b9050602002016020810190610cd99190611255565b73ffffffffffffffffffffffffffffffffffffffff168152602001868685818110610d0757610d0661189b565b5b90506020020135815250908060018154018082558091505060019003905f5260205f2090600202015f909190919091505f820151815f015f6101000a81548173ffffffffffffffffffffffffffffffffffffffff021916908373ffffffffffffffffffffffffffffffffffffffff160217905550602082015181600101555050838382818110610d9a57610d9961189b565b5b9050602002013582610dac91906119c6565b91508080600101915050610b8b565b50612710811115610e01576040517f08c379a0000000000000000000000000000000000000000000000000000000008152600401610df890611fc1565b60405180910390fd5b8686604051610e11929190611690565b60405180910390207fb9e8fd50a7de435f8e9ca1af1a2281e7f7912c07e0409f3af5f8a486db6e1b9b86868686604051610e4e94939291906120cd565b60405180910390a250505050505050565b610e67610f32565b5f73ffffffffffffffffffffffffffffffffffffffff168173ffffffffffffffffffffffffffffffffffffffff1603610ed7575f6040517f1e4fbdf7000000000000000000000000000000000000000000000000000000008152600401610ece919061128f565b60405180910390fd5b610ee081610fb9565b50565b600260015403610f1f576040517f3ee5aeb500000000000000000000000000000000000000000000000000000000815260040160405180910390fd5b6002600181905550565b60018081905550565b610f3a61107a565b73ffffffffffffffffffffffffffffffffffffffff16610f58610a6f565b73ffffffffffffffffffffffffffffffffffffffff1614610fb757610f7b61107a565b6040517f118cdaa7000000000000000000000000000000000000000000000000000000008152600401610fae919061128f565b60405180910390fd5b565b5f5f5f9054906101000a900473ffffffffffffffffffffffffffffffffffffffff169050815f5f6101000a81548173ffffffffffffffffffffffffffffffffffffffff021916908373ffffffffffffffffffffffffffffffffffffffff1602179055508173ffffffffffffffffffffffffffffffffffffffff168173ffffffffffffffffffffffffffffffffffffffff167f8be0079c531659141344cd1fd0a4f28419497f9722a3daafe3b4186f6b6457e060405160405180910390a35050565b5f33905090565b5080545f8255600202905f5260205f209081019061109f91906110a2565b50565b5b808211156110e1575f5f82015f6101000a81549073ffffffffffffffffffffffffffffffffffffffff0219169055600182015f9055506002016110a3565b5090565b5f604051905090565b5f5ffd5b5f5ffd5b5f5ffd5b5f5ffd5b5f5ffd5b5f5f83601f840112611117576111166110f6565b5b8235905067ffffffffffffffff811115611134576111336110fa565b5b6020830191508360018202830111156111505761114f6110fe565b5b9250929050565b5f73ffffffffffffffffffffffffffffffffffffffff82169050919050565b5f61118082611157565b9050919050565b61119081611176565b811461119a575f5ffd5b50565b5f813590506111ab81611187565b92915050565b5f819050919050565b6111c3816111b1565b81146111cd575f5ffd5b50565b5f813590506111de816111ba565b92915050565b5f5f5f5f606085870312156111fc576111fb6110ee565b5b5f85013567ffffffffffffffff811115611219576112186110f2565b5b61122587828801611102565b945094505060206112388782880161119d565b9250506040611249878288016111d0565b91505092959194509250565b5f6020828403121561126a576112696110ee565b5b5f6112778482850161119d565b91505092915050565b61128981611176565b82525050565b5f6020820190506112a25f830184611280565b92915050565b5f5ffd5b5f601f19601f8301169050919050565b7f4e487b71000000000000000000000000000000000000000000000000000000005f52604160045260245ffd5b6112f2826112ac565b810181811067ffffffffffffffff82111715611311576113106112bc565b5b80604052505050565b5f6113236110e5565b905061132f82826112e9565b919050565b5f67ffffffffffffffff82111561134e5761134d6112bc565b5b611357826112ac565b9050602081019050919050565b828183375f83830152505050565b5f61138461137f84611334565b61131a565b9050828152602081018484840111156113a05761139f6112a8565b5b6113ab848285611364565b509392505050565b5f82601f8301126113c7576113c66110f6565b5b81356113d7848260208601611372565b91505092915050565b5f5f604083850312156113f6576113f56110ee565b5b5f83013567ffffffffffffffff811115611413576114126110f2565b5b61141f858286016113b3565b9250506020611430858286016111d0565b9150509250929050565b5f61144482611157565b9050919050565b6114548161143a565b82525050565b611463816111b1565b82525050565b5f60408201905061147c5f83018561144b565b611489602083018461145a565b9392505050565b5f5f83601f8401126114a5576114a46110f6565b5b8235905067ffffffffffffffff8111156114c2576114c16110fa565b5b6020830191508360208202830111156114de576114dd6110fe565b5b9250929050565b5f5f83601f8401126114fa576114f96110f6565b5b8235905067ffffffffffffffff811115611517576115166110fa565b5b602083019150836020820283011115611533576115326110fe565b5b9250929050565b5f5f5f5f5f5f60608789031215611554576115536110ee565b5b5f87013567ffffffffffffffff811115611571576115706110f2565b5b61157d89828a01611102565b9650965050602087013567ffffffffffffffff8111156115a05761159f6110f2565b5b6115ac89828a01611490565b9450945050604087013567ffffffffffffffff8111156115cf576115ce6110f2565b5b6115db89828a016114e5565b92509250509295509295509295565b5f82825260208201905092915050565b7f416d6f756e74206d7573742062652067726561746572207468616e20300000005f82015250565b5f61162e601d836115ea565b9150611639826115fa565b602082019050919050565b5f6020820190508181035f83015261165b81611622565b9050919050565b5f81905092915050565b5f6116778385611662565b9350611684838584611364565b82840190509392505050565b5f61169c82848661166c565b91508190509392505050565b7f4e6f2062656e656669636961726965732073657420666f72207468697320776f5f8201527f726b000000000000000000000000000000000000000000000000000000000000602082015250565b5f6117026022836115ea565b915061170d826116a8565b604082019050919050565b5f6020820190508181035f83015261172f816116f6565b9050919050565b7f4e6f2066756e647320746f2064697374726962757465000000000000000000005f82015250565b5f61176a6016836115ea565b915061177582611736565b602082019050919050565b5f6020820190508181035f8301526117978161175e565b9050919050565b5f6060820190506117b15f830186611280565b6117be6020830185611280565b6117cb604083018461145a565b949350505050565b5f8115159050919050565b6117e7816117d3565b81146117f1575f5ffd5b50565b5f81519050611802816117de565b92915050565b5f6020828403121561181d5761181c6110ee565b5b5f61182a848285016117f4565b91505092915050565b7f546f6b656e207472616e73666572206661696c656400000000000000000000005f82015250565b5f6118676015836115ea565b915061187282611833565b602082019050919050565b5f6020820190508181035f8301526118948161185b565b9050919050565b7f4e487b71000000000000000000000000000000000000000000000000000000005f52603260045260245ffd5b7f4e487b71000000000000000000000000000000000000000000000000000000005f52601160045260245ffd5b5f6118ff826111b1565b915061190a836111b1565b9250828202611918816111b1565b9150828204841483151761192f5761192e6118c8565b5b5092915050565b7f4e487b71000000000000000000000000000000000000000000000000000000005f52601260045260245ffd5b5f61196d826111b1565b9150611978836111b1565b92508261198857611987611936565b5b828204905092915050565b5f61199d826111b1565b91506119a8836111b1565b92508282039050818111156119c0576119bf6118c8565b5b92915050565b5f6119d0826111b1565b91506119db836111b1565b92508282019050808211156119f3576119f26118c8565b5b92915050565b5f81905092915050565b50565b5f611a115f836119f9565b9150611a1c82611a03565b5f82019050919050565b5f611a3082611a06565b9150819050919050565b7f455448207472616e73666572206661696c6564000000000000000000000000005f82015250565b5f611a6e6013836115ea565b9150611a7982611a3a565b602082019050919050565b5f6020820190508181035f830152611a9b81611a62565b9050919050565b5f819050919050565b5f611ac5611ac0611abb84611157565b611aa2565b611157565b9050919050565b5f611ad682611aab565b9050919050565b5f611ae782611acc565b9050919050565b611af781611add565b82525050565b5f604082019050611b105f830185611aee565b611b1d602083018461145a565b9392505050565b5f81519050919050565b5f82825260208201905092915050565b5f819050602082019050919050565b611b5681611176565b82525050565b5f611b678383611b4d565b60208301905092915050565b5f602082019050919050565b5f611b8982611b24565b611b938185611b2e565b9350611b9e83611b3e565b805f5b83811015611bce578151611bb58882611b5c565b9750611bc083611b73565b925050600181019050611ba1565b5085935050505092915050565b5f81519050919050565b5f82825260208201905092915050565b5f819050602082019050919050565b611c0d816111b1565b82525050565b5f611c1e8383611c04565b60208301905092915050565b5f602082019050919050565b5f611c4082611bdb565b611c4a8185611be5565b9350611c5583611bf5565b805f5b83811015611c85578151611c6c8882611c13565b9750611c7783611c2a565b925050600181019050611c58565b5085935050505092915050565b5f608082019050611ca55f830187611280565b611cb2602083018661145a565b8181036040830152611cc48185611b7f565b90508181036060830152611cd88184611c36565b905095945050505050565b7f4e6f204554482062616c616e636520746f2077697468647261770000000000005f82015250565b5f611d17601a836115ea565b9150611d2282611ce3565b602082019050919050565b5f6020820190508181035f830152611d4481611d0b565b9050919050565b5f81519050611d59816111ba565b92915050565b5f60208284031215611d7457611d736110ee565b5b5f611d8184828501611d4b565b91505092915050565b7f4e6f20746f6b656e2062616c616e636520746f207769746864726177000000005f82015250565b5f611dbe601c836115ea565b9150611dc982611d8a565b602082019050919050565b5f6020820190508181035f830152611deb81611db2565b9050919050565b5f604082019050611e055f830185611280565b611e12602083018461145a565b9392505050565b7f417272617973206c656e677468206d69736d61746368000000000000000000005f82015250565b5f611e4d6016836115ea565b9150611e5882611e19565b602082019050919050565b5f6020820190508181035f830152611e7a81611e41565b9050919050565b7f496e76616c6964206164647265737300000000000000000000000000000000005f82015250565b5f611eb5600f836115ea565b9150611ec082611e81565b602082019050919050565b5f6020820190508181035f830152611ee281611ea9565b9050919050565b7f50657263656e74616765206d7573742062652067726561746572207468616e205f8201527f3000000000000000000000000000000000000000000000000000000000000000602082015250565b5f611f436021836115ea565b9150611f4e82611ee9565b604082019050919050565b5f6020820190508181035f830152611f7081611f37565b9050919050565b7f546f74616c2070657263656e74616765206578636565647320313030250000005f82015250565b5f611fab601d836115ea565b9150611fb682611f77565b602082019050919050565b5f6020820190508181035f830152611fd881611f9f565b9050919050565b5f819050919050565b5f611ff6602084018461119d565b905092915050565b5f602082019050919050565b5f6120158385611b2e565b935061202082611fdf565b805f5b85811015612058576120358284611fe8565b61203f8882611b5c565b975061204a83611ffe565b925050600181019050612023565b5085925050509392505050565b5f5ffd5b82818337505050565b5f61207d8385611be5565b93507f07ffffffffffffffffffffffffffffffffffffffffffffffffffffffffffffff8311156120b0576120af612065565b5b6020830292506120c1838584612069565b82840190509392505050565b5f6040820190508181035f8301526120e681868861200a565b905081810360208301526120fb818486612072565b90509594505050505056fea2646970667358221220903b829bbd7babe1eaf5d6081c05b300c8e8b9d2dac519030c8b2be8afe3241564736f6c634300081e0033","linkReferences":{}},"methodIdentifiers":{"beneficiaries(string,uint256)":"bf058d92","distributeRoyalties(string,address,uint256)":"2687e5aa","owner()":"8da5cb5b","renounceOwnership()":"715018a6","setBeneficiaries(string,address[],uint256[])":"d191f5f1","transferOwnership(address)":"f2fde38b","withdrawFunds(address)":"68742da6"},"id":34}